:1000000000180020C1000000A91800006D180000B1
:100010006D1800006D1800006D1800006D180000CC
:100020006D1800006D1800006D180000A918000080
:10003000A91800006D180000E9280000F128000050
:10004000A9180000A9180000A9180000A9180000AC
:10005000A9180000A9180000A9180000A91800009C
:10006000A9180000A9180000A9180000A91800008C
:10007000A9180000A9180000A9180000A91800007C
:10008000A9180000A9180000A9180000A91800006C
:10009000A9180000A9180000A9180000A91800005C
:1000A000C11C0000A9180000A9180000A918000030
:1000B000A9180000A9180000A9180000A91800003C
:1000C000F8B501F0F5FB0821474A484B1A60484A49
:1000D000484B1A60484A494B1A60494B1A780A4201
:1000E00002D01A780A431A702A22464B46481A70E0
:1000F00000234649464C1A188A4203D2E558043375
:100100001560F8E70021434B434A934201D202C3F2
:10011000FBE70023414A424958589446985004331B
:10012000C02BF9D100210326FF2580248A083D4BEE
:100130009200D2180B002F003340DB009F40106864
:100140000131B84307002000984003003B4313608F
:100150002029EBD16246344B1A608A22334B1A7045
:10016000334B663A5A707C321A709E3A9979114232
:10017000FCD0102299791142FCD10C209A792C499B
:100180000240082AFAD1053A0A713D324A71203AF2
:1001900099791142FCD0402299791142FCD025492D
:1001A000254A11602021224A117014399A790A4097
:1001B0000C2AFBD1214A224B1A60224A224B1A6098
:1001C0000022224B1A60224B07321A60214A224B2E
:1001D0001A6062B601F048FC02F078FD01F06EFB97
:1001E00001F03CFBFEE7C046300004F034800440E0
:1001F000823F0000388004400100000F3C80044032
:1002000002D0074000E0074030020020B004002088
:1002100028300000B0040020DC07002000F9FF1F98
:100220000000000000E400E008ED00E0005006409F
:10023000004006400000011044800440C000050555
:10024000048004407FBB000014E000E018E000E000
:1002500010E000E00000202020ED00E0FFFFFFFFA5
:10026000FFFFFFFFFFFFFFFFFFFFFFFFFFFFFFFF9E
:10027000FFFFFFFFFFFFFFFFFFFFFFFFFFFFFFFF8E
:10028000FFFFFFFFFFFFFFFFFFFFFFFFFFFFFFFF7E
:10029000FFFFFFFFFFFFFFFFFFFFFFFFFFFFFFFF6E
:1002A000FFFFFFFFFFFFFFFFFFFFFFFFFFFFFFFF5E
:1002B000FFFFFFFFFFFFFFFFFFFFFFFFFFFFFFFF4E
:1002C000FFFFFFFFFFFFFFFFFFFFFFFFFFFFFFFF3E
:1002D000FFFFFFFFFFFFFFFFFFFFFFFFFFFFFFFF2E
:1002E000FFFFFFFFFFFFFFFFFFFFFFFFFFFFFFFF1E
:1002F000FFFFFFFFFFFFFFFFFFFFFFFFFFFFFFFF0E
:10030000FFFFFFFFFFFFFFFFFFFFFFFFFFFFFFFFFD
:10031000FFFFFFFFFFFFFFFFFFFFFFFFFFFFFFFFED
:10032000FFFFFFFFFFFFFFFFFFFFFFFFFFFFFFFFDD
:10033000FFFFFFFFFFFFFFFFFFFFFFFFFFFFFFFFCD
:10034000FFFFFFFFFFFFFFFFFFFFFFFFFFFFFFFFBD
:10035000FFFFFFFFFFFFFFFFFFFFFFFFFFFFFFFFAD
:10036000FFFFFFFFFFFFFFFFFFFFFFFFFFFFFFFF9D
:10037000FFFFFFFFFFFFFFFFFFFFFFFFFFFFFFFF8D
:10038000FFFFFFFFFFFFFFFFFFFFFFFFFFFFFFFF7D
:10039000FFFFFFFFFFFFFFFFFFFFFFFFFFFFFFFF6D
:1003A000FFFFFFFFFFFFFFFFFFFFFFFFFFFFFFFF5D
:1003B000FFFFFFFFFFFFFFFFFFFFFFFFFFFFFFFF4D
:1003C000FFFFFFFFFFFFFFFFFFFFFFFFFFFFFFFF3D
:1003D000FFFFFFFFFFFFFFFFFFFFFFFFFFFFFFFF2D
:1003E000FFFFFFFFFFFFFFFFFFFFFFFFFFFFFFFF1D
:1003F000FFFFFFFFFFFFFFFFFFFFFFFFFFFFFFFF0D
:10040000FFFFFFFFFFFFFFFFFFFFFFFFDEF9FFFF23
:1004100010B5064C2378002B07D1054B002B02D0DA
:10042000044800E000BF0123237010BDB004002089
:100430000000000028300000084B10B5002B03D04E
:100440000749084800E000BF07480368002B00D1B7
:1004500010BD064B002BFBD09847F9E700000000C9
:10046000B404002028300000B00400200000000088
:100470004069704737B500230A00694601AC0B702C
:100480004B708B70016823706370A3700D68019BC3
:100490006946A84737BDC8204000704710B5012104
:1004A00004000D2001F06CFA2023A361014BE361ED
:1004B00010BDC046800000F80138C0B210B51F283A
:1004C00011D80123084A8340002902D011680B4348
:1004D00002E0116899430B001360044B1B78002B5A
:1004E00001D101F083FF10BDC40700207D0700206B
:1004F00010B50F2300281CDB0023162819DD01335B
:10050000432816DD0133702813DD01339D2810DDEB
:100510000133CA280DDD0133F4280ADD92220133AC
:100520005200904205DD5222FF320023904200DC4F
:1005300007330F2205494868904303434B60044B3F
:100540001B78002B01D101F051FF10BDC407002022
:100550007D07002070B5040008000D0002F0E5FBE7
:100560002368020029005B682000984770BD10B521
:10057000FFF7F0FF10BD036870B51B6805009847D2
:100580000400280000F0DCFF001970BD70B5050004
:10059000FFF7E0FF0400280000F0D2FF001970BD53
:1005A000F8B5036804008B4231D0C5680160A942E8
:1005B00024DA06690020B14223DD154B62691B78FD
:1005C0008F1A9C4603006046984200D0A3685842A8
:1005D000874201DD9F4213DB002F08DDF81AA91ABC
:1005E000C91A400202F0DEF90A4BC01809E0881B64
:1005F000911BC91A400202F0D5F902E0064800E05A
:100600000448636860601B1A5A1E93416376F8BD04
:1006100030020020FF010000FF03000070B505005C
:10062000007E02F043F8094C09492000FFF79FFFC4
:100630002968200000F0C4FF06492000FFF797FF5B
:100640006968200000F0BCFF70BDC0465802002061
:10065000652D00005C2D0000F7B5724D28002C00C0
:1006600000F050FF3834B035637A002B22D00022DE
:10067000237A26786272012B02D0032B0AD019E06C
:10068000694A61685354694B1B78002B12D0684F3C
:10069000684908E0644B61685A54644B1B78002B2E
:1006A00008D0634F64493800FFF761FF310038001C
:1006B000FFF761FF0C34AC42D6D10026012534008F
:1006C0006D420027584A5D4B9219D15D9B19DB5D45
:1006D000002916D018006138072812D802F04EF908
:1006E0009B049D06090B0D0F00255EE087256D001C
:1006F0005BE0E12559E0B42557E0872555E05A2510
:1007000053E03C3B1800192B4FD802F037F92D4E1F
:10071000324E4E4E254E154E1D4E484E4E4E4E43B9
:100720004E4E4E4E4E4E370D0B00591E8B410193CF
:100730006B460120197928E00B00591E8B4101936B
:100740006B460220197920E00B00591E8B41019362
:100750006B460320197918E00B00591E8B41019359
:100760006B460420197910E04B1E99410520C9B24F
:1007700019E04B1E99410620C9B214E00B00591E26
:100780008B4101936B460A201979FFF795FE019B77
:10079000E4180AE04B1E99410B20C9B203E04B1E3E
:1007A00099411420C9B2FFF787FE0137082F89D17C
:1007B00028000836FFF79CFE182E82D1053C6242C5
:1007C00062411F4BD4B21C701B78002B28D0012231
:1007D000002D02D0B42D03D10022144B1A701FE05B
:1007E0005A2D08D10122174B17491A700F4B1B784D
:1007F000002B15D00BE087235B009D4210D1002217
:10080000104B1A70094B1B78934209D00F490848C6
:10081000FFF7BCFE04E02D25C7E73C25FF35C4E704
:10082000F7BDC04618050020F10500204406002051
:1008300058020020612D0000682D000031020020C8
:10084000F0050020300200206F2D0000842D0000F4
:10085000F7B5142000F0BAFF3C4D01002800FFF767
:100860009FFE152000F0B2FF394E01003000FFF767
:1008700097FE162000F0AAFF364C01002000FFF77B
:100880008FFE354A354B5168354F194073680096D5
:100890001600BB4200D93B001B010B435360314B98
:1008A0001B78002B01D101F0A1FD2F4B72681A407B
:1008B0006368BB4200D92A4B9B0313437360294BE7
:1008C0001A780193002A01D101F090FD6B68BB42B8
:1008D00000D9234B726819061202120A0A43726089
:1008E0000322B1681B0A91430B43B360019B1B7841
:1008F000002B01D101F07AFD1C4B1B78002B24D07A
:100900006B7E002B06D1009B5B7E002B02D1637EA9
:10091000002B1AD0164E17493000FFF728FE28008A
:10092000FFF77CFE144D30002900FFF720FE0098F1
:10093000FFF774FE29003000FFF719FE2000FFF7D3
:100940006DFE0E493000FFF721FEF7BD0C060020BA
:10095000FC04002028060020C40700200FC0FFFF71
:10096000FF0300007D070020FF3F00FF440600203A
:10097000580200209A2D0000A12D00006E2D0000CD
:10098000F8B50A20012600F0CDFE022000F0F4FEAA
:100990000122284B764230001A70FFF7A9FD01238F
:1009A000254F264C3D681D4022D1380000F087FFBE
:1009B00000281DD0FF236373FE3BA374204B6560AA
:1009C0001A682673A673E673267466746561A5605B
:1009D000002A00D11C601B4B1A68002A00D09460CA
:1009E0001C6000232384184B3800236000F06BFF49
:1009F000002301221549200000F0D4FB144B154AB6
:100A000002215A61144AF824DA6003221A61002292
:100A10009A608022114B92005A611148E33AFF3AE2
:100A2000D86019619A600F4BFF345C61D86019611E
:100A30009A60F8BD7D070020D0040020D404002077
:100A4000580600205C060020402D0000F80400201D
:100A50000C0600200B020000FD030000FC04002037
:100A6000FF0300002806002010B5FFF7F1FEFFF796
:100A7000F3FD01F0BBFC10BD0B7B70B503734B7B2A
:100A8000040043738B7B0D008373CB7B0322C37302
:100A90000B7C03744B7C43740B681231036012307F
:100AA00002F03AF91523EB56200063756B6863601A
:100AB000A360AB69A36170BD002383617047F7B584
:100AC000089D0193AC680134AC60EC680134EC60C3
:100AD0002C6901342C610024944626001A0027005A
:100AE0002300644667786E7836063F0601D176406B
:100AF000C046BF1900D3FF4300D33F06EC683F0E4A
:100B000067436E782C79A61B6E703B044160C0462B
:100B1000C0460324013CFDD15B0000D28160C04689
:100B2000C046C0460824013CFDD18160C046C04695
:100B30000524013CFDD14160C046C0460324013C70
:100B4000FDD15B0000D28160C04664462778C04674
:100B5000C0460724013CFDD18160C046C046052443
:100B6000013CFDD14160C046C0460324013CFDD19B
:100B70005B0000D28160C0462E7836063F0601D168
:100B80007640C046C0460624013CFDD18160C04687
:100B9000C0460524013CFDD14160C046C046032447
:100BA000013CFDD15B0000D28160C046BF1900D37B
:100BB000FF4300D33F060724013CFDD18160C046BE
:100BC000C0460524013CFDD14160C046C046032417
:100BD000013CFDD15B0000D28160C046AC683F0E95
:100BE0006743C0460724013CFDD18160C046C04632
:100BF0000524013CFDD14160C046C0460324013CB0
:100C0000FDD15B0000D28160C0462E78EC78A61B37
:100C10002E70C0460624013CFDD18160C046C0460E
:100C20000524013CFDD14160C046C0460324013C7F
:100C3000FDD15B0000D28160C046C046C04608249A
:100C4000013CFDD18160C046C0460524013CFDD178
:100C50004160C046C0460324013CFDD15B0000D288
:100C60008160C0463B04C0460824013CFDD1816040
:100C7000C046C0460524013CFDD14160C046C04687
:100C80000324013CFDD15B0000D28160C046C04618
:100C9000C0460824013CFDD18160C046C046052401
:100CA000013CFDD14160C046C0460324013CFDD15A
:100CB0005B0000D28160C0466446A778C046C0464B
:100CC0000724013CFDD18160C046C0460524013C9B
:100CD000FDD14160C046C0460324013CFDD15B000C
:100CE00000D28160C046AE7836063F0601D176401C
:100CF000C046C0460624013CFDD18160C046C046C6
:100D00000524013CFDD14160C046C0460324013C9E
:100D1000FDD15B0000D28160C046BF1900D3FF4304
:100D200000D33F060724013CFDD18160C046C04688
:100D30000524013CFDD14160C046C0460324013C6E
:100D4000FDD15B0000D28160C0462C693F0E674335
:100D5000C0460724013CFDD18160C046C046052441
:100D6000013CFDD14160C046C0460324013CFDD199
:100D70005B0000D28160C046AE786C79A61BAE7075
:100D8000C0460624013CFDD18160C046C046052412
:100D9000013CFDD14160C046C0460324013CFDD169
:100DA0005B0000D28160C046AC79A444C046C04616
:100DB0000724013CFDD18160C046C0460524013CAA
:100DC000FDD14160C046C0460324013CFDD15B001B
:100DD00000D28160C0463B04C0460824013CFDD1DE
:100DE0008160C046C0460524013CFDD14160C0463B
:100DF000C0460324013CFDD15B0000D28160C046A7
:100E0000C046C0460824013CFDD18160C046C046B2
:100E10000524013CFDD14160C046C0460324013C8D
:100E2000FDD15B0000D28160C04664466778C04651
:100E3000C0460724013CFDD18160C046C046052460
:100E4000013CFDD14160C046C0460324013CFDD1B8
:100E50005B0000D28160C0466E7836063F0601D145
:100E60007640C046C0460624013CFDD18160C046A4
:100E7000C0460524013CFDD14160C046C046032464
:100E8000013CFDD15B0000D28160C046BF1900D398
:100E9000FF4300D33F060724013CFDD18160C046DB
:100EA000C0460524013CFDD14160C046C046032434
:100EB000013CFDD15B0000D28160C046EC683F0E72
:100EC0006743C0460724013CFDD18160C046C0464F
:100ED0000524013CFDD14160C046C0460324013CCD
:100EE000FDD15B0000D28160C0466E782C79A61BD4
:100EF0006E70C0460624013CFDD18160C046C046EC
:100F00000524013CFDD14160C046C0460324013C9C
:100F1000FDD15B0000D28160C046C046C0460824B7
:100F2000013CFDD18160C046C0460524013CFDD195
:100F30004160C046C0460324013CFDD15B0000D2A5
:100F40008160C0463B04C0460824013CFDD181605D
:100F5000C046C046C0460324013CFDD1013A01D041
:100F6000C046D3E50198FEBD00B5027B89B003AB56
:100F70001A70427B20215A70827B9A70827C059283
:100F8000C27C0692027D0792C27BDA70027C1A71E3
:100F9000427C5A71427D9A7100930CC80248FFF757
:100FA0008EFD09B000BDC046800000F870B5040099
:100FB0000D0088B000F01AFD238CC01A80B23128D1
:100FC000F8D972B6290001A8FFF756FD01A8FFF76E
:100FD000CBFF00280CD162B6C8239B00013BFDD19A
:100FE00072B6290001A8FFF747FD01A8FFF7BCFF73
:100FF000B423DB005843064901F05EFD054E356819
:101000004519356062B600F0F1FC208408B070BD6F
:1010100080BB000064060020072370B518490A78D9
:1010200001321A40063B13400A70DB01910701D5DB
:1010300040210B4304210A4201D020221343050022
:101040000F3006001033DCB20C350023A979994229
:1010500005D08020400001F02FFD0130C3B25A1CA2
:1010600062431212EB70D1B2002A00D0013929700C
:10107000002B01D0013BEB700135AE42E5D170BDD4
:10108000CC040020F0B58BB00193877C05001E20B6
:1010900003AC160003916260A26001A903226844B8
:1010A00001F03AFE012F03D12000FFF7B5FF06E063
:1010B000002363742374E373A373637323730323A1
:1010C000310020006375FFF7F7FC2B6821009B6956
:1010D000280098470BB0F0BDF0B58BB00193877C2A
:1010E00005001E2003AC160003916260A26001A9F6
:1010F0000322684401F010FE012F03D12000FFF706
:101100008BFF06E0002363742374E373A37363739C
:1011100023730023310020006375FFF7CDFC2B689B
:1011200021009B69280098470BB0F0BD542337B5C8
:10113000144AFF2413760321002358251248A400E3
:10114000536013609360D460116150610F4A15764B
:10115000536013609360D460116150610C4A013593
:1011600053601360936008331576D4601161506149
:1011700001930091074B084A0849094800F05AF8C2
:1011800037BDC0460C060020FF010000FC04002013
:10119000280600204C0200204902002031020020D5
:1011A00018050020F8B504000E0017001D1E01DC14
:1011B00015000027236820009B6898470321794386
:1011C00023687118616065615B6920009847011EA2
:1011D00008D0054801F070FC044D6B68834200D2D2
:1011E00003006B602000F8BD40420F00480600205D
:1011F000FF22044B1A7000225A80DA60013A9A608A
:101200007047C046480600200023037003724372F3
:10121000704710B5080000F0A1FB10BD10B5080024
:10122000110000F07BFB10BD10B50800110000F0AC
:10123000A7FB10BDF0B504002500270085B0019381
:101240000AAB1B78043002930BAB1B78009103931D
:101250001600FFF7D9FF134B38352360B03728004D
:101260000C35FFF7D1FFBD42F9D12300019ABC3301
:101270005A606A46127A1E601A726A46127B043BF2
:101280005A73009A20001A600A221A61EB32FF3268
:101290005A6122000023D4321360203A136013777E
:1012A00005B0F0BDAC2D0000F0B50400002585B000
:1012B0002300C43302931B78AB4201D8002530E0F1
:1012C0002300BC331B680222595D236820001B6881
:1012D00001359847EDB2EBE72200BC3212689B68FB
:1012E000915D20009847B300E318002835D11A69B2
:1012F00001990A4301361A61F6B2029B1A782368F3
:10130000B242E9D83A685B68515D200001229847F3
:101310003B680022595D236820001B68984701350F
:10132000EDB22300C5331B78AB421AD92700C03772
:101330003B680122595D236820001B6898473B6881
:101340000022595D236820005B6898470123AB4069
:101350000193DB4300260393CFE7039A19690A4000
:10136000C8E705B0F0BD10B502000C240020230032
:101370004343D318DB6B8B4203D001300A28F6D1EC
:101380000B3810BD0C234B43C31810B51C00403460
:1013900022701A000124413214700200D0321478F5
:1013A0000432002C08D01368002B0BD0002909D17F
:1013B00038300078984705E01268002A02D03833A8
:1013C0001878904710BDFFFF0C234B43C31837B567
:1013D00004001800002541300570403318780328B8
:1013E00027D801F0CBFA020F1E22002A21D02000BC
:1013F0000122FFF7C7FF0F4BB0341B680093009B1F
:10140000236016E020000B4BB0301B68006801938E
:10141000019B1B1A2000CC300068834201D90222B4
:1014200004E0002A05D1032200E000222000FFF79B
:10143000A9FF37BD640600200300F0B501000400D9
:10144000012085B038330393B03140421A7A002A24
:1014500002D11A7058605A720C339942F6D10025A5
:101460002300C4331B78AB423FD900262300C53389
:101470001B78B34236D92A1D920017590122F74032
:101480006B4317409B19FAB2190020000292019396
:10149000FFF769FFC1B2002818DA431C1FD1002FE3
:1014A0001DD0002303980278D9B2002A13D120005E
:1014B000B8300068019FC05D0C277B43E3181F0014
:1014C000383738700198D86340331A70029A200078
:1014D000FFF77AFF03E001330C300A2BE3D101362A
:1014E000F6B2C3E70135EDB2BAE72300002041337D
:1014F000B9341A78002A00D001200C339C42F8D16C
:1015000005B0F0BD73B505000C4EB43533682A68DC
:101510000093009B04009B1A0200C832126800204E
:10152000934209D92000FFF7BFFE2000FFF784FF98
:1015300033680193019B2B6076BDC0466406002092
:1015400037B5022504002A00054901A801F0E4FB93
:1015500023682A005B6801A9200098473EBDC04669
:10156000B82D0000F0B50D000F2185B09446134A48
:101570006944ACB22F0C574301345443BBB2260C20
:101580001C19A4193B0C240CDB19E3180A245B0872
:101590005C432D1B303501390D701D1EE9D16346AA
:1015A000002B02D02D2301390B70CA4304ABD21893
:1015B00003685B68984705B0F0BDC0463333000050
:1015C000002210B5914201DA49422D32FFF7CAFFDD
:1015D00010BDFFFF8023F0B51D4A10681840FCD1F4
:1015E00072B61C4C2378002B30D01B4B1F681B4B52
:1015F0001A681B4BBA181E681A4B92191D681A4BB1
:1016000052191968194B52181B68194DD21892B209
:101610005208184B2A4392B21A60174B17491B689D
:10162000174A9C46174B1B6812680F68164963449B
:101630000E6816499B180968DB199B195A1893B252
:101640005B082B43124A9BB21360207062B6F0BD58
:1016500024B003406106002038B003403CB0034092
:1016600040B0034044B0034048B003404CB0034096
:101670000080FFFF2CB0034058B0034064B003402B
:1016800060B003405CB0034068B003406CB00340FE
:1016900030B003401B4B1C4A19781C4B082901D160
:1016A000002102E00A2903D12E311160132206E045
:1016B0000C2901D1283100E03C21116012221A606E
:1016C000134B1A78134B002A01D0002200E00122AC
:1016D0001A60114B1A78114B012A01D880220CE0B4
:1016E000042A01D8842208E0082A01D8852204E0CF
:1016F000102A01D8862200E087221A600122084BB6
:101700001A7070475402002008B003400CB0034028
:101710006306002020B003405502002024B003409F
:101720006106002010B50C2804D9102800D910201B
:10173000102306E00C230A2803D8023B082800D80F
:10174000023B094AD9B2081A1070084A107883423D
:1017500009D0074B11701B78002B02D00022054BDB
:101760001A60FFF797FF10BD6006002054020020AA
:101770006106002024B0034010B5114B04001B7813
:10178000002B01D0FFF726FF0E4A0023012C02D9BF
:10179000042C02D8042313600EE0082C03D8052380
:1017A0001360033308E0102C03D8062313600A33B8
:1017B00002E0072313601933034A137010BDC046BB
:1017C0006106002024B0034055020020F8B5030054
:1017D0000020272B33D81A4AD45CFF2C2FD0194B6A
:1017E0001B78834201D0FFF7F5FE72B61027402226
:1017F000154B144205D01A68BA431A603F231C40A7
:1018000002E01A683A431A600123104E104D34600A
:101810002B7062B672B680223368134208D00D4B2B
:10182000186800232B7062B60B4B1B78184106E03A
:101830002B78002BDBD062B600F0BAFFEAE7F8BDE8
:10184000BA2D0000610600200CB0034000B0034038
:101850006206002010B003406006002010B5FFF7BC
:101860008FF8FFF701F900F0A3FFFAE770B58025C4
:101870008026ED02F6000B4C23682B4201D000F0CD
:101880001FFA2368334201D000F00EF823681B05CD
:1018900001D500F009F82368DB04ECD500F004F86A
:1018A000E9E7C0463480044010B5FFF7DFFFFFFFD3
:1018B0000022014B1A607047008104407047007895
:1018C000434258417047012303707047F8B5060042
:1018D0000D00170000243900300001F0E9F80B007A
:1018E0003733DBB2092901D83031CBB230002B5568
:1018F000390001F057F8061E01D00134EBE72B192F
:1019000058702B005A1B944206DD1A78295D197015
:101910002A550133013CF5E72800F8BD10B51A2817
:1019200018D80C2358430C4A835810181C7D027A8F
:10193000224205D0002901D01A710BE01A7209E089
:1019400043681A68002902D003210A4301E00221FA
:101950008A431A6010BDC046E42D000000231A28F7
:101960000AD80C335843054A83581018007A1B7C58
:101970000340581E8341DBB218007047E42D00007D
:10198000F0B51A282FD80C2217004743164CE5193A
:101990006B682600012901D0042911D15043345825
:1019A0003018257D027A20202A432275A222520077
:1019B0001A601A68042901D1024313E0824311E03E
:1019C00038592C7A027DA24302758022002908D062
:1019D000022902D10422FF3204E00022032901D1AE
:1019E000812252001A60F0BDE42D000072B60C4B4B
:1019F0001A680C4B18680C4B1B6862B65B0104D567
:101A0000322393429B415B42C018084B9A1A084B01
:101A10005A43FA239B005843920D10187047C04652
:101A200018E000E06406002004ED00E07FBB000049
:101A30005555010070B50400FFF7D8FF0500002CD4
:101A40000FD0FFF7D3FF074B401B984206D9013C4C
:101A5000002C06D0FA239B00ED18F2E700F0A8FE58
:101A6000EFE770BDE703000080221E4BD20510B5E2
:101A70001A608022002012061A601B4B1B49186056
:101A80001B4B1C4A1960282313601B4A1B4C136014
:101A90001B4A13601B4A13601B4A13601B4A1360E6
:101AA000092222601A4C20601A4C21601A4C2360D3
:101AB0001A4C23601A4C22601A4C20601A480160AC
:101AC0001A490B601A490B601A4B1A60FFF7E2FDC6
:101AD0001920FFF7AFFF00F00BFC1420FF30FFF7D9
:101AE000A9FF10BD00E100E004800340FFBF00003B
:101AF000088003400C8003401480034000800340B2
:101B00001C800340248003402C8003403480034029
:101B100004900340089003400C900340149003404D
:101B20000090034004A0034008A003400CA0034021
:101B300014A0034000A003400223F0B50A4A0B4E54
:101B40001478C8272343DB00F51868600848057837
:101B5000002D00D1403F09040F43F75001235D40A1
:101B60005C4005701470F0BDEC06002000F8FF1F0B
:101B70007C070020431E10B50020062B0ED872B63D
:101B8000074A99008858002807D044685B008C50A9
:101B9000044904885A5A121B5A5262B610BDC046F4
:101BA000D0060020B6070020431E0020062B09D8CF
:101BB00072B6054A9B009B58002B02D001305B682F
:101BC000FAE762B67047C04630070020F8B572B633
:101BD0000123174A082594461E00164964465A1EDA
:101BE000A25C2A421AD05F017C589A00002C05D1D1
:101BF000CB1908305860104BCB5109E03243D2006A
:101C00005458002C0AD18B18083058600B4B8B505D
:101C10000B4A1378013B137062B608E00133082BBE
:101C2000DCD162B60022064B1A7000F035FCF8BD1C
:101C3000502F000000F8FF1F88004000C80040003F
:101C400072070020421E10B5062A30D802238000F9
:101C50001843174BC0001B1872B6164CA05C032823
:101C60000BD800F08BFE16040207052012E00833A3
:101C700002200FE0083304200CE00F4892001458B3
:101C80000E4B002C01D1115001E098584160995041
:101C90000CE00320A0540A0008325A60C82218073A
:101CA00000D4403A098809040A431A6062B610BD9C
:101CB00000F8FF1F88060020300700204C07002096
:101CC000F7B5BC4B1C781D000423E4B21C421DD0A8
:101CD000B94B1B78002B16D0B84A1378DBB2002B17
:101CE00005D0013BDBB21370002B00D100BEB44A1B
:101CF0001378DBB2002B06D0013BDBB21370002B54
:101D000001D100F031FD0422AA4B1A7008222240B2
:101D100000D17DE2AB4BAC4F1B78DBB29C08E400FA
:101D20001D093C19002D00D003E223686568980660
:101D3000000F01380C2800D9F7E100F029FEA801B6
:101D4000A801F601F601F601F601F601F601D3014C
:101D5000F601F601F6010D0000229C486B68026056
:101D600001209B4E296873609A4B316023609A4C26
:101D700089B22070994C3A61BA610193A1421BD893
:101D8000D023DB00994200D3F0E081235B0099422D
:101D900000D1CDE006D8802900D1B2E0822900D15F
:101DA000B4E003E18E4B994200D1D0E0FF33FF3322
:101DB000994200D140E1F9E08A4B994200D13BE1E0
:101DC00011D8223BFF3B99421AD0874B994200D150
:101DD0005AE1A13B994200D0E8E0774B834C1B7855
:101DE000237003002CE1824B994200D1D3E0814B58
:101DF000994200D120E1804B994200D0D6E043E1E6
:101E00003C00B2786C4B7D1C1A702034FF35802268
:101E10002368134203D06068083800F03DFB0834A3
:101E2000AC42F4D100242500744BE058002805D0C2
:101E30004368009300F030FB0098F7E76F4B1851B0
:101E40006F4BE0506F4BE058002805D0436800937B
:101E500000F022FB0098F7E76A4B6B4A18516B4B76
:101E6000E0506B00D0526A4BE85C0238032807D878
:101E700000F084FD02040204002200E001225A5511
:101E800001350434072DCFD100230124614D2B707F
:101E9000614B6249621EE3188A5C9B001A7008233A
:101EA0001A4220D000F0DAFA6301002805D0FA18AF
:101EB000083050605A4AFA5003E0F8502B7801334A
:101EC0002B7000F0CBFA0122A3001343DB000028A3
:101ED00005D0FA1808305060019AFA5003E0F85023
:101EE0002B789B182B7002210023A2001143C900FC
:101EF0007B5003210A438A400134BB50082CC7D1D0
:101F00009DE03A4C02232270627099E07F23B188F1
:101F10000B40072B4AD8354C9B0022706270414A17
:101F20009B181A7802231A4200D189E0207087E0BA
:101F30007F23B2881A40072A38D87388002B35D1FE
:101F40000220384992005218117881432CE07F23F7
:101F5000B2881A40072A29D87388002B26D102207C
:101F6000304992005218117801431DE07288B188FF
:101F70002D4B5C68002C19D01888904209D15888E4
:101F8000884206D1120A032A01D1237858E01B891E
:101F900056E00C33EDE7B388002B4FD1234A11688C
:101FA000234A1160B178234A117048E00F221D4B7B
:101FB0001A7069E0802007407B070020ED060020B2
:101FC000800700209020074000F8FF1F68060020CF
:101FD00068070020C80040007C0700208106000040
:101FE00002030000210A00002109000073070020FD
:101FF000212200002123000021200000D006002023
:102000006C06002030070020B60700204C07002097
:10201000880600207207002030C80110502F0000F1
:1020200088004000C0200740582F000064060020B0
:10203000D807002090070020002300E013001C00B8
:10204000F5889D4200D91D002E00402D00D9402664
:1020500020003100FFF770FDA419AD1B03D12F0044
:10206000402E04D010E04027AF4200D92F002000BE
:102070003900FFF761FDE419ED1B01D1402F03D1B9
:102080007F4B1C607F4B1D8001227F4B4CE07F4EBD
:102090007F4B32889A4213D1B388002B0CD17D4AF2
:1020A000E95CD1540133072BFAD113680735862B2D
:1020B00002D10F22784B1A7000210800FFF73CFD77
:1020C000764B32689A420AD1754B72689A4206D1B1
:1020D00000212A78734B08001A70FFF72DFD724B10
:1020E000236022E0664F3E68002E13D0654B1C88AB
:1020F0002500402C00D9402529003000FFF71CFDA9
:10210000641B604BA4B21C80002C01D1402D00D177
:1021100074193C60A0225D4BD2001988914204D111
:1021200000225A709A78614B1A700122564B1A702D
:102130006AE008226068013D0838EDB2134037D0EC
:1021400000F0AAF95A49A80042585A4B002A1CD05C
:10215000566846501100585D0831616003280BD85D
:1021600000F00CFC02040608032104E0022102E056
:10217000052100E0042159550821C8230C4200D153
:10218000403B1288120413433DE0585D032808D8F1
:1021900000F0F4FB3A3A0204002200E001225A5512
:1021A00032E008221440621E944102345C552BE058
:1021B0002268110C8AB2028000291ED03E49438059
:1021C0004360AB005F583D4E002F01D1585001E0F5
:1021D000F15848603A496D00F0506B5AD2186A5273
:1021E00000F03CF9002802D00830606005E0354A74
:1021F000206013780133137006E008231C4201D1DC
:10220000314B00E0284B23600822304B1A7058E510
:10221000012004421ED002231B492B4C0B702C4B77
:102220002C4E1A702C4B1C609C602C4C1A61DC608C
:102230000D249A615E602A4B1C70FF23294C237089
:102240001A4C2B702270284A13709F22274B1A7049
:10225000087013E063B2002B04DA0D22204B1A70D1
:1022600080232B700222144204D01E490B78DBB26B
:102270000B702A7010231C4200D02B70F7BDC04693
:10228000680600207007002094200740680700209F
:1022900021200000D0070020ED06002021090002C7
:1022A000020001007F070020C8004000982007407E
:1022B0003007002088060020D00600206C06002091
:1022C000B6070020720700208800400080200740E9
:1022D000EC0600209006002000F8FF1FF00600200A
:1022E000C0200740882007408C20074084200740FA
:1022F00010B500F007FB0022802011001B4B4000AE
:10230000D1509C18083261608242F9D1802018496E
:10231000C0020A6802430A601A0A1649D2B20A7059
:102320001A0C1549D2B20A70144A1B0E1370FF23FF
:10233000134A00201370134A13491370134A137081
:1023400001220A701249087012490A70124A116873
:1023500099430B0070210B43136080220F4B5204F2
:102360001A6010220E4B1A7010BDC04600F8FF1FF5
:10237000348004409C200740B0200740B420074030
:102380008020074088200740942007401020074005
:10239000002107408420074018E400E000E100E04D
:1023A0000821074010B500F0F7F810BD10B500F097
:1023B000C3F810BD10B500F097F810BD10B500F0CF
:1023C000DBF810BD10B500F0A1F910BD10B500F09C
:1023D00077F910BD10B50800110000F0F7F810BD36
:1023E00010B5080000F062F910BDFFFF70B5174C82
:1023F000174B1B78002B25D00620FFF7D5FB154E79
:10240000022803D9013C002C13D115E000F026F876
:10241000051EF7D0002434700C260F493200083016
:1024200000F07AFC06202E802900FFF70BFC20002C
:102430000AE03378002B02D00123337002E000F071
:10244000B7F9D5E70120404270BDC04629320000EF
:102450007B0700207E070020C407002070B572B6FD
:102460000B4D2C68200000F013FC1D2802DD62B625
:1024700000200CE080231B06C3409C432C6062B606
:1024800048235843034B181800230360436070BD72
:1024900068020020C0F9FF1F10B504000E48482153
:1024A000201A00F07FFA1D2814D80C4B1B78002B43
:1024B00007D00B4B1B78002B03D02000FFF786FBC7
:1024C00008E072B680231B06C340064A11680B431E
:1024D000136062B610BDC046C0F9FF1F720700202E
:1024E0007B0700206802002070B5114D2B68002B7F
:1024F0000CD0286843885A1CC3181C7A03889A4257
:1025000012D3FFF7C9FF00232B600EE0094B1B78A5
:10251000002B02D10120404208E00320FFF72AFBF4
:1025200028600028E5D1F5E74280200070BDC04654
:102530008C0700207B07002010B50D4C2368002B72
:1025400003D02268002A0ED103E00A4B1B78002B2F
:1025500002D10120404209E00320FFF70BFB20607D
:102560000028EED1F5E75388D318187A10BDC0467D
:102570008C0700207B070020054B9888054B1A68C4
:10258000002A03D0138852889B1AC0187047C0468F
:10259000B60700208C07002010B50A4B1B78002BD3
:1025A0000FD0094C2068002803D0FFF775FF0023E7
:1025B00023600320FFF7DEFA002802D0FFF76CFF4C
:1025C000F7E710BD7B0700208C070020314A01236C
:1025D000F0B50C00170085B00190029113700393C1
:1025E000002C53D02C4D2B68002B25D12B4E2C4B7F
:1025F0001B78DBB2002B01D13B7017E00420FFF702
:10260000D3FA072809D86B461B7B3B70FFF726FFE0
:10261000214B186000280FD13870013E214B002E4D
:1026200002D01A78002A04D001221A7001204042F8
:102630002EE000F0BDF8DAE700221A4B29681A7084
:1026400040234A88981A2300844200D903000800D6
:1026500008308018D2184A800022E41A934204D02D
:10266000019EB65C86540132F8E7019AD3180193B3
:102670004B883F2B06D9402304200B80FFF7E2FA5A
:1026800000232B600522084B1A70A9E702983C70C2
:1026900005B0F0BD81070020840700200975000007
:1026A0007B070020880700208007002007B56B46C5
:1026B000D871073301211800FFF788FF0EBDFFFF17
:1026C000012370B50E4C0F4D23702B68002B10D1D9
:1026D0000D4B1B78002B02D1002020700FE004204E
:1026E000FFF762FA0728F7D8FFF7B8FE286000283E
:1026F000F2D02B6858884023181A0023237070BD2D
:1027000081070020840700207B070020F7B5124BCB
:102710001B78002B1FD00126104F114B3C681E70F8
:102720000193104D002C09D000262E7063882100E3
:1027300023800420FFF786FA3E6009E0FFF78EFE53
:10274000011E04D004202C70FFF77CFA00E02E70EC
:102750000023019A1370F7BD7B0700208407002037
:10276000810700208007002070B50E4B1C78E4B272
:10277000002C15D10C4D2968002906D04B88042067
:102780000B80FFF75FFA2C600AE0FFF767FE011E7F
:1027900003D00420FFF756FA02E00122034B1A701F
:1027A00070BDC046810700208407002080070020FC
:1027B000F8B52F4C2278002A58D02E4E3378002BB3
:1027C00054D1013333701A420DD0FFF7D5FE0028E3
:1027D00001D000F095F8284B1B78002B03D0012284
:1027E00023789343237023789B0712D50025234B2E
:1027F0001B78AB420DD9224BAA00D7583B68380052
:102800001B699847002801D03B6998470135EDB214
:10281000EDE70023337023785B0727D519490B6850
:10282000002B23D0EFF30583002B1FD1EFF3108291
:1028300072B60868002803D0134C2578002D03D009
:10284000002A13D162B611E00123237043690B60A3
:10285000002B01D09D6101E00C490B60002A00D1E2
:1028600062B600258368457798472570F8BDC04655
:102870006C020020910700206D020020B4070020A8
:10288000A8070020A0070020A40700209C07002024
:10289000EFF3108072B643425841C0B2704700282F
:1028A00000D062B67047FFFF10B5FFF7F1FF0C4A8A
:1028B0001468002C10D063691360002B02D0002232
:1028C0009A6101E0074A1360FFF7E9FF0023200047
:1028D0006377A3689847E8E7FFF7E1FF10BDC046BC
:1028E000940700209807002010B5FFF7DDFF10BD0A
:1028F000024A1368013313607047C0466406002023
:102900007047FFFF30B585B072B670224121154B7C
:102910001A70154A1170154A3239117080221A70D6
:102920001A7852B2002AFBDA114B186862B6114BC2
:10293000984201D80A23584301AC0A222100FEF72D
:10294000C5FF00230C48E15C0500002905D05A00B2
:102950008218013351800A2BF5D101335B002B70B3
:1029600005B030BD000002400700024006000240F2
:10297000080002407F9698009A04002002B4714635
:1029800049084900095C49008E4402BC7047C046B2
:1029900003B47146490840004900095A49008E4471
:1029A00003BC7047002243088B4274D303098B4257
:1029B0005FD3030A8B4244D3030B8B4228D3030C0F
:1029C0008B420DD3FF22090212BA030C8B4202D3B1
:1029D0001212090265D0030B8B4219D300E0090AD9
:1029E000C30B8B4201D3CB03C01A5241830B8B42E2
:1029F00001D38B03C01A5241430B8B4201D34B03CB
:102A0000C01A5241030B8B4201D30B03C01A52412F
:102A1000C30A8B4201D3CB02C01A5241830A8B42B4
:102A200001D38B02C01A5241430A8B4201D34B029D
:102A3000C01A5241030A8B4201D30B02C01A524101
:102A4000CDD2C3098B4201D3CB01C01A52418309B5
:102A50008B4201D38B01C01A524143098B4201D3EF
:102A60004B01C01A524103098B4201D30B01C01A1A
:102A70005241C3088B4201D3CB00C01A5241830894
:102A80008B4201D38B00C01A524143088B4201D3C1
:102A90004B00C01A5241411A00D201465241104621
:102AA0007047FFE701B5002000F0F0F802BDC04616
:102AB0000029F7D076E7704703460B437FD4002206
:102AC00043088B4274D303098B425FD3030A8B42C2
:102AD00044D3030B8B4228D3030C8B420DD3FF222C
:102AE000090212BA030C8B4202D31212090265D0FA
:102AF000030B8B4219D300E0090AC30B8B4201D3AD
:102B0000CB03C01A5241830B8B4201D38B03C01AF3
:102B10005241430B8B4201D34B03C01A5241030B6A
:102B20008B4201D30B03C01A5241C30A8B4201D31B
:102B3000CB02C01A5241830A8B4201D38B02C01AC6
:102B40005241430A8B4201D34B02C01A5241030A3D
:102B50008B4201D30B02C01A5241CDD2C3098B4222
:102B600001D3CB01C01A524183098B4201D38B019F
:102B7000C01A524143098B4201D34B01C01A524142
:102B800003098B4201D30B01C01A5241C3088B4287
:102B900001D3CB00C01A524183088B4201D38B0072
:102BA000C01A524143088B4201D34B00C01A524114
:102BB000411A00D201465241104670475DE0CA0FEB
:102BC00000D04942031000D34042534000229C46AB
:102BD00003098B422DD3030A8B4212D3FC228901B5
:102BE00012BA030A8B420CD3890192118B4208D38B
:102BF000890192118B4204D389013AD0921100E0ED
:102C00008909C3098B4201D3CB01C01A5241830900
:102C10008B4201D38B01C01A524143098B4201D32D
:102C20004B01C01A524103098B4201D30B01C01A58
:102C30005241C3088B4201D3CB00C01A52418308D2
:102C40008B4201D38B00C01A5241D9D243088B4228
:102C500001D34B00C01A5241411A00D201466346CB
:102C600052415B10104601D34042002B00D549422F
:102C7000704763465B1000D3404201B5002000F06E
:102C800005F802BD0029F8D016E770477047C04626
:102C90001C2101231B04984201D3000C10391B0A8C
:102CA000984201D3000A08391B09984201D3000950
:102CB000043902A2105C40187047C04604030202A7
:102CC0000101010100000000000000000E4B70B582
:102CD00000251E000D4CE41AA410A54204D0AB0040
:102CE000F35898470135F8E700F090F9084B0025B4
:102CF0001E00084CE41AA410A54204D0AB00F358FF
:102D000098470135F8E770BD183000001830000012
:102D10001830000024300000002310B59A4203D080
:102D2000CC5CC4540133F9E710BD0023C25C01330D
:102D3000002AFBD1581E7047000000000000000070
:102D4000D9100000851000009D04000075040000EB
:102D50007104000097040000AD0F0000202D3E20FC
:102D600000646F776E3A200075703A20202000557D
:102D7000736520646561642D7A6F6E65733A2074A3
:102D80007275650055736120646561642D7A6F6E9C
:102D900065733A2066616C736500417869733A2007
:102DA000002C20000000000000000000291200009C
:102DB0001D120000131200000D0A050E08090D0C6B
:102DC00006070F0B004417FF050E08090D0C060738
:102DD0000F0B004417FFFFFFFFFFFFFFFFFFFFFF89
:102DE0001A1BFFFF420000F840A004400100000051
:102DF000420000F844A0044002000000C00000F8B7
:102E000000C0044001000000000000F804900440ED
:102E100002000000000000F80890044004000000D8
:102E2000C00000F81CC0044080000000C00000F892
:102E300010C0044010000000C00000F808C00440AA
:102E400004000000C00000F80CC0044008000000AE
:102E5000800000F80CB0044008000000800000F87A
:102E600010B0044010000000800000F818B00440CA
:102E700040000000800000F81CB00440800000000A
:102E8000800000F814B0044020000000C00000F8EA
:102E900004C0044002000000800000F800B00440BC
:102EA00001000000400000F800A004400100000004
:102EB000400000F804A0044002000000400000F8B8
:102EC0000CA0044008000000400000F808A00440E6
:102ED00004000000C00000F814C0044020000000FE
:102EE000C00000F818C0044040000000800000F856
:102EF00004B0044002000000800000F808B0044064
:102F000004000000020100F850D00440100000004E
:102F1000020100F854D0044020000000030100F832
:102F200078D00440400000000000000000000000D5
:102F3000E1230000D5230000CD230000C5230000BD
:102F4000BD230000B5230000AD230000A523000031
:102F500015151915151515FF00010000C2020020F6
:102F60001200000000020000EC020020AF00000090
:102F7000002202009B0300203F000000002102000D
:102F80004003002009000000002203006E02002020
:102F90005400000000210300590300200900000034
:102FA00000220400DA030020550000000021040084
:102FB0007203002009000000002205002F040020F9
:102FC00028000000002105008B03002009000000FC
:102FD0000003000096040020000000000103090423
:102FE000D40200200000000002030904580400205D
:102FF00000000000030309049A0400200000000000
:10300000000000000000000000000000F8B5C0460D
:10301000F8BC08BC9E467047390400002D11000022
:04302000F1110000AA
:04302400F8B5C046F5
:10302800016463626168676665422D442D465554A4
:10303800482D3C2D3E4D2D2D2D0806000A04090172
:103048000C05070B0A040000302F000000000000E8
:10305800E803000000000000FFFFFFFF0101050179
:103068000902A10185010509190129081500250191
:103078009508750181020501093009310938158162
:10308800257F750895038106050C0A3802158125E8
:103098007F750895018106C005010902A101850215
:1030A800050109300931150026FF7F751095028149
:1030B80002C012011001EF020140C016870473021A
:1030C8000102030118035400650065006E007300D7
:1030D80079006400750069006E006F000902AF0096
:1030E800060100C032080B000202020100090400B8
:1030F800000102020100052400100105240101015C
:103108000424020605240600010705820310004076
:1031180009040100020A000000070503024000003C
:1031280007058402400000090402000103010100B0
:10313800092111010001223F000705810308000150
:103148000904030001030000000921110100012204
:103158005400070585030800020904040001030060
:103168000000092111010001225500070586030C02
:1031780000010904050001030000000921110100F4
:10318800012228000705870308000405010906A194
:103198000175019508050719E029E7150025018142
:1031A800029501750881039505750105081901291E
:1031B800059102950175039103950675081500257B
:1031C8007F05071900297F8100C005010904A101B5
:1031D800150025017501952005091901292081028D
:1031E800150025073500463B017504950165140552
:1031F800010939814205010901A100150026FF03D3
:10320800750A950409300931093209358102C0155A
:103218000026FF03750A9502093609368102C005A2
:103228000C0901A101750A950419002A9C021500D0
:10323800269C028100050175089503190029B71518
:103248000026B7008100C0003E03530065007200ED
:10325800690061006C002F004B0065007900620076
:103268006F006100720064002F004D006F00750050
:10327800730065002F004A006F0079007300740026
:10328800690063006B00040309040C0300000000DC
:103298000000000000000000000000000000000026
:00000001FF
